:03000000020426D1
:0C042600787FE4F6D8FD75812D02046D8E
:10000E0073696E65007472696100737175610020A9
:10001E00202020467265713A2031302020487A0027
:10002E0073717561202020567070203A203520564D
:10003E00000200021A02350250026A0284029E0277
:10004E00B702D002E802FF0316032C034103560346
:10005E0069037C038D039D03AC03BA03C703D3036B
:10006E00DD03E603EE03F403F903FC03FE03FF03D3
:10007E00FE03FC03F903F403EE03E603DD03D303EF
:10008E00C703BA03AC039D038D037C0369035603B8
:10009E0041032C031602FF02E802D002B7029E02B1
:1000AE0084026A02500235021A020001E501CA01F9
:1000BE00AF0195017B01610148012F01170100007D
:1000CE00E900D300BE00A900960083007200620012
:1000DE005300450038002C002200190011000B00BF
:1000EE0006000300010000000100030006000B00E3
:1000FE001100190022002C00380045005300620048
:10010E00720083009600A900BE00D300E901000131
:10011E0017012F01480161017B019501AF01CA0151
:10012E00E500000011002200330044005500660077
:10013E00770088009900AB00BC00CD00DE00EF0117
:10014E0000011101220133014401550166017701BD
:10015E0088019901AA01BB01CC01DD01EE0200026A
:10016E00110222023302440255026602770288020D
:10017E009902AA02BB02CC02DD02EE02FF031003BB
:10018E002103320343035503660377038803990360
:10019E00AA03BB03CC03DD03EE03FF03EE03DD0373
:1001AE00CC03BB03AA0399038803770366035503A5
:1001BE004303320321031002FF02EE02DD02CC02E2
:1001CE00BB02AA0299028802770266025502440215
:1001DE003302220211020001EE01DD01CC01BB014E
:1001EE00AA01990188017701660155014401330185
:1001FE00220111010000EF00DE00CD00BC00AB00BB
:10020E0099008800770066005500440033002200F4
:05021E0011000003FFC8
:10061500020D0000020B000A010978010800010A19
:0D062500020A0F200000000000000000008D
:0A0223008E238F248B258A2689275D
:10022D007C007D641204DD7C007D0A1204DD8D29C5
:10023D00AE23AF247C007D0A1204DD7C007D0A1202
:10024D0004DD8D2AAE23AF247C007D0A1204DD8DE2
:10025D002BE4F52DAD2DED3395E0FCC3ED95287414
:10026D0080F86C98500D7429252DF8743026F605FC
:10027D002D80E1E4F52D7429252DF8E6B4300DD34C
:10028D00E52D648094835004052D80EAE4FFC3E5D9
:10029D002D6480F8EF6480985019AB25AA26A92704
:1002AD0074201204CB74012527F527E43526F52695
:1002BD000F80DBAD2DED3395E0FCC3ED95287480FB
:1002CD00F86C98501E7429252DF8E6AB25AA26A9A1
:1002DD00271204CB74012527F527E43526F52605CD
:0D02ED002D80D0AB25AA26A927E40204CB62
:1002FA0020B212E4F50A7D01FF1205F67BFF7A00AF
:10030A00790E12063320B113750A017D01E4FF123A
:10031A0005F67BFF7A00791312063320B013750AAB
:10032A00027D01E4FF1205F67BFF7A0079181206B6
:10033A003320B42B30B4FDE50C150C7002150B7B81
:10034A00007A00790F752803AF0CAE0B120223E472
:10035A00FD7F091205F67B007A00790F1206332019
:10036A00B32A30B3FD050CE50C7002050B7B007A4D
:10037A0000790F752803FFAE0B120223E4FD7F09F3
:0D038A001205F67B007A00790F120633226F
:1005D500758901AC0BAD0C7E207F8D1204DDAC0658
:1005E500ECF404F58CEFF404F58AD2AFD2A9D28CE1
:0105F50022E3
:10039700E4F521F5227580FF7590FF75A0FF75B014
:1003A700FF1205B1E4FDFF1205F67BFF7A00791D08
:1003B7001206337D01E4FF1205F67BFF7A00792EE2
:1003C7001206331205D5E5B0F460031202FAE50A06
:1003D700700DE50825E0243FF582E434008010E540
:1003E7000AB40119E50825E0242FF582E43401F564
:1003F70083E493FE740193FF12057780C9E50AB47D
:1004070002C4E50875F03C8425E0241FF582E43436
:0F04170002F583E493FE740193FF12057780A72B
:03000B00020532B9
:10053200C0E0C0F0C0D075D000C000C004C005C08B
:1005420006C007AC0BAD0C7E207F8D1204DDAC061D
:10055200ECF404F58CEFF404F58A0508E508B50916
:1005620003750800D007D006D005D004D000D0D043
:05057200D0F0D0E032E2
:0D066000C2A0D2A100D2A200C2A2AF80228F
:10064A00C2A2A20092A0C2A10085238000D2A20069
:06065A00C2A200020660CE
:0A066D00C200EF4408F52302064A1C
:0A067700C200EF4404F52302064A16
:1005B100C2A2C20075233812064AC200752338123E
:1005C100064A7F0412066DC20075230112064A7F96
:0405D10002020677A5
:1005F600AE07ED700AC200EE4480F52312064ABD2E
:0F060600010CC200EE24C04480F52312064A22E4
:100633001204B2FF6010D200F52312064A74012996
:07064300F9E43AFA80EA2213
:04057700AD07AC061A
:10057B00E4FBC292E47E02A803088006CEA2E71336
:10058B00CE13D8F8FFEE5CFEEF5D4E6004D2918087
:10059B0002C291D293C2930BBB0AD9D293C293D20C
:0505AB0093C293D292FF
:0105B0002228
:10043200020397E493A3F8E493A34003F68001F246
:1004420008DFF48029E493A3F85407240CC8C333CB
:10045200C4540F4420C8834004F456800146F6DF9A
:10046200E4800B0102040810204080900615E47E0F
:10047200019360BCA3FF543F30E509541FFEE4938F
:10048200A360010ECF54C025E060A840B8E493A356
:10049200FAE493A3F8E493A3C8C582C8CAC583CA81
:1004A200F0A3C8C582C8CAC583CADFE9DEE780BE39
:0106320000C7
:1004B200BB010689828A83E0225002E722BBFE0248
:0904C200E32289828A83E493227B
:1004CB00BB010689828A83F0225002F722BBFE0110
:0204DB00F3220A
:1004DD00BC000BBE0029EF8DF084FFADF022E4CC03
:1004ED00F875F008EF2FFFEE33FEEC33FCEE9DECCC
:1004FD00984005FCEE9DFE0FD5F0E9E4CEFD22ED12
:10050D00F8F5F0EE8420D21CFEADF075F008EF2F5B
:10051D00FFED33FD4007985006D5F0F222C398FD4C
:05052D000FD5F0EA22E9
:00000001FF
